:020000040000FA
:060000000A128A11FC2F18
:10080200831203138E018F01071502308312031323
:10081200C700C70B0A2C0000831203130711871DA0
:10082200102C10148719132C10100E08F0000F084A
:10083200F100F201F30100300A128A11B6250A1200
:100842008A11730883120313A7007208A6007108A5
:10085200A5007008A4004230A3006B30A20047300C
:10086200A100AE30A0000A128A1159260A128A117A
:10087200831203132308BD002208BC002108BB0019
:100882002008BA000A128A11AC24831203133B080F
:10089200C9003A08C8004908C6004808C50008004F
:1008A20083120313D001CB1F5D2CCA09CB09CA0ADC
:1008B2000319CB0AD001D00ACD1F682CCC09CD096F
:1008C200CC0A0319CD0A0130CE004E08D006D10160
:1008D200D2014A084B0403199F2CCF01CF0ACB1B2C
:1008E2007E2C01300310CA0DCB0DFF3E031D732C6D
:1008F2000130CE004E08CF07702C01300310D10D0D
:10090200D20DFF3E031D7F2C4B084D02031D8B2C85
:100912004A084C02031C942C4A08CC024B08031CC4
:10092200CD03CD02511401300310CB0CCA0CFF3E93
:10093200031D952C0130CF02031D7E2C5008031994
:10094200A72CD109D209D10A0319D20A5208CB0025
:100952005108CA0008000310831203133C0D3D0D19
:10096200BE003E08C4004408031DC02C0030BD0078
:100972000030BC000030BB000030BA0008003A086A
:10098200BE003B08BF003C08C0003D08C1001F304C
:100992000310C10CC00CBF0CBE0CFF3E031DC92CC2
:1009A2003E08C2004208C300BC17FF30BA05FF3040
:1009B200BB05FF30BC050030BD059630C402C41F24
:1009C200F72C4408803A973E031CB72C01300310E1
:1009D200BD0CBC0CBB0CBA0CFF3E031DE82C013055
:1009E200BE003E08C40703190A2DE72C203044023A
:1009F2000318B72C440803190A2D0130BE00031056
:100A0200BA0DBB0DBC0DBD0DBE0B002D0130C402D5
:100A1200FB2C430803190800BA09BB09BC09BD092C
:100A2200BA0A0319BB0A0319BC0A0319BD0A080052
:100A3200831603138601FF308312031386000630E8
:100A420083120313D5001330D400AD30D300D30B7F
:100A5200282DD40B282DD50B282D831203138601A4
:100A6200831603130711831203130711831603134B
:100A720087158312031310129012901005308312FF
:100A82000313CA000030CB000A128A1101240A1291
:100A92008A11831203134608CD004508CC000A12BE
:100AA2008A1151240A128A11831203134B08D700A8
:100AB2004A08D60056035704031D6C2D01308600E8
:100AC200413083120313D400ED30D300D30B672DD2
:100AD200D40B672D6C2D0230831203135606570474
:100AE200031D802D03308600413083120313D4008E
:100AF200ED30D300D30B7B2DD40B7B2D802D033017
:100B02008312031356065704031D942D07308600E3
:100B1200413083120313D400ED30D300D30B8F2D59
:100B2200D40B8F2D942D04308312031356065704D1
:100B3200031DA92D0F308600413083120313D40008
:100B4200ED30D300D30BA32DD40BA32DA82D3F2D15
:100B52008601413083120313D400ED30D300D30B4E
:100B6200B02DD40BB02DB52D3F2DF8007808031D04
:100B7200F31FCB2D7009FA007109FB007209FC000A
:100B82007309FD00FA0A0319FB0A0319FC0A031987
:100B9200FD0AD32D7308FD007208FC007108FB00EA
:100BA2007008FA007308720471047004031DE22DC8
:100BB2000030F3000030F2000030F1000030F000AD
:100BC20008009630F4007408F900FE307D05031920
:100BD200132E0130F4007408F90701300310FD0CE4
:100BE200FC0CFB0CFA0CFF3E031DEF2DE62D013031
:100BF200F4007408F9070130FA07003003180130D5
:100C0200FB07003003180130FC07003003180130E5
:100C1200FD0701300310FD0CFC0CFB0CFA0CFF3E2F
:100C2200031D0B2EFF307D050319272EF82D0230F0
:100C32007902031C292E0130F9020130F40003105D
:100C4200FA0DFB0DFC0DFD0DF40B202EFC1F182ED2
:100C52007918332EFF30FA05FF30FB057F30FC0593
:100C6200FF30FD050310F90C7908F400F501F601D7
:100C7200F70118300310F40DF50DF60DF70DFF3ED8
:100C8200031D3B2E7408FA047508FB047608FC0465
:100C92007708FD047808031DF31F502EFD177D0809
:100CA200F3007C08F2007B08F1007A08F0000800EB
:100CB2008312031327088039A8002808B1002708E7
:100CC200A8002807A9002908B800A61B381438086C
:100CD2000319792E380A031D762E0030A700003042
:100CE200A6000030A5000030A400A617A701812E9F
:100CF2000030A7000030A6000030A5000030A4009C
:100D020023088039A8002808B1062308A80028076C
:100D1200A9002908B900A21B3914390803199F2E0A
:100D2200390A031D9C2E0030A3000030A2000030BF
:100D3200A1000030A000A217A301A72E0030A3003B
:100D42000030A2000030A1000030A00023082204DD
:100D520021042004031DC62E0030A7000030A60087
:100D62000030A5000030A4008030A6047F30A70424
:100D72003108A8002808A7042708A3002608A20013
:100D82002508A1002408A00008003808031DD22E5F
:100D92000030A3000030A2000030A1000030A0000B
:100DA20008003808A800A9012908AB003908280260
:100DB200AA00031CAB032A087F3EB2002B080318CB
:100DC200013E003EB3002708B0002608AF00250808
:100DD200AE002408AD000030A7000030A6000030AD
:100DE200A5000030A4000030B7000030B60000308B
:100DF200B5000030B400B9011A3039020318452F8A
:100E020039080319212F0130A8000310AD0DAE0DD2
:100E1200AF0DB00DA80B062F0130A8000310A40DD2
:100E2200A50DA60DA70DA80B0F2FB71B241401307B
:100E3200A8000310B40DB50DB60DB70DA80B1A2FEF
:100E420023083002031D2F2F22082F02031D2F2FEC
:100E520021082E02031D2F2F20082D02031C402FD4
:100E620037172008AD022108031C210FAE02220809
:100E7200031C220FAF022308031C230FB002013010
:100E8200A8002808B907FD2E30082F042E042D04CF
:100E9200031D3414A61B682F0130A8000310A40DF3
:100EA200A50DA60DA70DA80B4F2FB71B24140130BB
:100EB200A8000310B40DB50DB60DB70DA80B5A2F2F
:100EC200FF30B2070318B30AFF30B3074B2FB90143
:100ED200B71F812FFF303405A800FF303505A90068
:100EE200FF303605AA007F303705AB002B082A04F5
:100EF20029042804031924187F2F812FB901B90A64
:100F020039080319B32F0130A40700300318013048
:100F1200A507003003180130A6070030031801307E
:100F2200A707271CB32F2408A8002508A900260814
:100F3200AA002708AB000130AC002B0DAB0CAA0CA9
:100F4200A90CA80CAC0B9E2F2B08A7002A08A60000
:100F52002908A5002808A4000130B2070318B30A23
:100F62000030B3073308803AFF0080307F02031D50
:100F7200BC2FFF303202031CCC2FFF30831203132D
:100F8200B2000030B3000030A7000030A6000030ED
:100F9200A5000030A400831203133308803AFF0037
:100FA20080307F02031DD72F013032020318E62F53
:100FB20083120313B201B3010030A7000030A60070
:100FC2000030A5000030A400B101831203133208DF
:100FD200A8002808B800381CF02FA617F42F7F307D
:100FE200A8002808A6053808A8000310280CA900A4
:0E0FF2002908A700B92E83010A128A11192DB1
:02400E00BA3FB7
:00000001FF
