:100000000C942A000C943C000C943C000C943C0092
:100010000C943C000C943C000C943C000C943C0070
:100020000C943C000C943C000C943C000C943C0060
:100030000C943C000C943C000C943C000C943C0050
:100040000C943C000C943C000C943C000C943C0040
:100050000C943C0011241FBECFE5D8E0DEBFCDBF1D
:1000600010E0A0E6B0E001C01D92A236B107E1F7B2
:100070000E943E000C94FE000C9400006F927F9250
:100080008F929F92AF92BF92CF92DF92EF92FF92A8
:100090000F931F93DF93CF9300D0CDB7DEB71A82B3
:1000A00019828BEF81BB8FEF87BB88BB80E593EC18
:1000B00028EC30E0F9013197F1F70197D9F718BA38
:1000C0000F2EF2E3CF2EDD24F02D99249394492DA9
:1000D0000F2EF8E2AF2EF02DE0E3F0E00F2EFEE45D
:1000E000EF2EFF24F02DBB246894B1F80CE410E04F
:1000F00028E330E00F2EF3E08F2EF02D0F2EF7E0E7
:100100007F2EF02D0F2EFFE06F2EF02DD6014C9399
:100110008A2D8A95F1F71C92808182FFFDCFD7014D
:10012000BC92808182FDFDCFD7011C92D8018D91B8
:100130009C911197909361008093600011961C929E
:100140001E9280916000909161006AE370E00E94CD
:10015000D700862F972F9A83898389819A8165E0BA
:1001600070E00E94D700862F972F9A838983898118
:100170009A818130910579F0823091051CF4892BA8
:1001800039F012C08230910549F0039769F409C033
:10019000D9019C92BBCFD9018C92B8CFD9017C9266
:1001A000B5CFD9016C92B2CFD9011C92AFCF97FBDA
:1001B000092E07260AD077FD04D00CD006D00020E7
:1001C0001AF4709561957F4F0895F6F79095819593
:1001D0009F4F0895AA1BBB1B51E107C0AA1FBB1F5D
:1001E000A617B70710F0A61BB70B881F991F5A95C3
:1001F000A9F780959095BC01CD010895F894FFCFA3
:00000001FF
